:0200000049298C
:10000800FF00030E8301CA000A08CB008A017008AA
:10001800A1007108A0000B1C1A28061F15283521FD
:10002800A209861F19283521C3090B100B1D222888
:10003800C80A0319C90A0B113C3081002108F000D5
:100048002008F1004B088A004A0E8300FF0E7F0E3D
:0200580009009D
:0E005A00213083120313FD00FD0B3128080036
:060068000000000008008A
:10006E000F3083120313FC004730FD00FD0B3D28BB
:0A007E00FC0B3D2800000000080004
:1000880083120313D41B4A2886114B288615541B48
:100098004F28061150280615D41A542886105528BA
:1000A8008614541A592806105A2806144C185E2823
:1000B80006165F280612861634208612D41966287A
:1000C80086116728861554196B2806116C280615A1
:1000D800D4187028861071288614541875280610AC
:1000E800762806144C187A2806167B2806128616D7
:1000F800342086124C1C8228372083282D200800A3
:10010800831203134C105308D40044204C140800E5
:0E0118008312031347088A004608820008007D
:10012600023083120313FD00FD0B972800009F1475
:100136009F1C9E289B281E08F100F00183161E08AE
:08014600F0070318F10A08009C
:10014E00B928803083120313CF00CC28C030CF00E3
:10015E00CC289430CF00CC28D430CF00CC2880309F
:10016E00CF00CC28831203134F08013A0319A82895
:10017E004F08023A0319AD284F08033A0319B02865
:10018E004F08043A0319B328B6285003F0004F085D
:10019E00F0077008CF007008D40044204C10D20134
:1001AE0052085107840000080319E5285208510728
:1001BE0084000008D3008420D20AD7284C140800EB
:1001CE008316031386120612061086100611861168
:1001DE00831286120612861106118610061037201B
:1001EE0037203720861406148616342086123720C0
:1001FE008616342086123720861634208612372033
:10020E000610861634208612372086163420861263
:10021E00861086158616342086123720861106140F
:10022E008616342086120610861634208612372043
:10023E00861634208612061486163420861237202F
:10024E000610861634208612861506158614061498
:0C025E0086163420861237204C1408004D
:10026A008312031385018601870188018901080029
:10027A008C208A110A128000840AC60A0319C70A46
:08028A00F003031D3D290800EB
:1002920083120313A2015030A3006130A400743012
:1002A200A5007230A6006F30A7007530A800693033
:1002B200A9006C30AA006C30AB006530AC00AD0117
:1002C2005230AE006130AF006C30B0006530B1002A
:1002D2006E30B2007430B3006930B4007230B500D1
:1002E200B6014130B7006330B8006330B9006930FD
:1002F200BA006430BB006530BC006E30BD007430A3
:10030200BE00BF01C001C101C201C301CD01CE01C6
:100312008730831681008312850186018701880157
:100322008901831685120511091089100911891195
:1003320007118711071287120811881108128812F3
:1003420006178617081488140714851503178801E1
:1003520088158901031316179617A8308B0083128C
:100362009F171F1383169F121F1283129F121F12B1
:100372009F151F1583169F1783121F1403178713C8
:1003820088133C308100E7200130D40044200C3037
:10039200D40044200130CF000630D0002E30D100EE
:1003A200A720071CE1290130D40044200C30D400DE
:1003B20044200130CF000630D0002E30D100A720DB
:1003C200081CF0290130D40044200C30D400442011
:1003D2000130CF000630D0003730D100A720881C72
:1003E200FF290130D40044200C30D40044200130D5
:1003F200CF000630D0002330D100A7209320700810
:100402008312CD007108CE0000307102031D0B2A49
:10041200D23070020318122A2830C4000030C500FE
:10042200232A02304E02031D182A6B304D02031894
:100432001F2A1430C4000030C500232A0A30C40029
:100442000030C5002208003A031D632A4308003A1F
:10045200031D472A45084902031D312A4408480260
:10046200031C462A0808F000F00D7010700888007E
:10047200C801C9010808403A0319442A0808003A89
:100482000319442A462A04308800622A4508490290
:10049200031D4D2A44084802031C622A0808F00082
:1004A200F00CF01370088800C801C9010808023A6C
:1004B2000319602A0808003A0319602A622A2030C8
:1004C2008800D82A4308003A031DA02A3521700863
:1004D200C1007108C2004018702A0511712A051561
:1004E2004018752A8910762A891440187A2A071129
:1004F2007B2A071540187F2A0712802A0716401800
:10050200842A8712852A87164018892A88118A2AFE
:10051200881540188E2A08128F2A08164018932A26
:100522008812942A881645084902031D9A2A44080B
:100532004802031C9F2AC009C801C901D82A3521D3
:100542007008C1007108C2004018A92A8512AA2A9F
:1005520085164018AE2A0910AF2A09144018B32A8A
:100562000911B42A09154018B82A0711B92A071522
:100572004018BD2A8711BE2A87154018C22A0811C1
:10058200C32A08154018C72A8811C82A8815401896
:10059200CC2A0812CD2A081645084902031DD32A7F
:1005A20044084802031CD82AC009C801C901D2293B
:0205B200D92A44
:04400E00F22F000786
:00000001FF
