:020000000329D2
:0E000600213083120313FD00FD0B07280800B4
:100014000F3083120313FC004730FD00FD0B102842
:0A002400FC0B10280000000008008B
:06002E00000000000800C4
:1000340083120313C71B2028861121288615471B0A
:100044002528061126280615C71A2A2886102B28C3
:100054008614471A2F280610302806143D18342811
:10006400061635280612861617208612C7193C284C
:1000740086113D2886154719412806114228061580
:10008400C718462886104728861447184B28061098
:100094004C2806143D1850280616512806128616B8
:1000A400172086123D1C58280A20592803200800CE
:0E00B4008312031341088A00400882000800EE
:1000C200831203133D104608C7001A203D1408008E
:1000D2008316031386120612061086100611861165
:1000E20083128612061286110611861006100A2045
:1000F2000A200A20861406148616172086120A2061
:100102008616172086120A208616172086120A20C3
:1001120006108616172086120A20861617208612C7
:10012200861086158616172086120A208611061456
:1001320086161720861206108616172086120A20A7
:1001420086161720861206148616172086120A2093
:1001520006108616172086128615061586140614B2
:0C0162008616172086120A203D140800A3
:10016E00C928803083120313C200DC28C030C200BD
:10017E00DC289430C200DC28D430C200DC28803069
:10018E00C200DC28831203134208013A0319B8286F
:10019E004208023A0319BD284208033A0319C0283F
:1001AE004208043A0319C328C6284303F000420844
:1001BE00F0077008C2007008C7001A203D10C50174
:1001CE0045084407840000080319F528450844072C
:1001DE0084000008C6006120C50AE7283D14080007
:1001EE005A208A110A128000840AC00A0319C10A11
:0801FE00F003031DF7280800BF
:10020600413083120313A0006330A1006330A200C3
:100216006930A3006430A4006530A5006E30A600E6
:100226007430A700A8015230A9006130AA006C30D2
:10023600AB006530AC006E30AD007430AE00693096
:10024600AF007230B000B1015030B2006130B3007F
:100256007430B4007230B5006F30B6007530B70038
:100266006930B8006C30B9006C30BA006530BB003C
:10027600BC0185018601870188018316881408154B
:100286000815031788018901A8308B0003139617F8
:1002960083120317871388130313BE01BF01692056
:1002A6000130C2000630C3002930C400B720881CC4
:1002B60069290130C7001A200C30C7001A20013006
:1002C600C2000630C3002930C400B720081D7829B3
:1002D6000130C7001A200C30C7001A200130C200B6
:1002E6000630C3002030C400B720881D892901309C
:1002F600C7001A200C30C7001A200130C200063091
:10030600C3003230C400B720BE01BF015A298A2972
:04400E00F22F000786
:00000001FF
