:020000001429C1
:0E000600213083120313FD00FD0B07280800B4
:06001400000000000800DE
:10001A000F3083120313FC004730FD00FD0B132839
:0A002A00FC0B132800000000080082
:1000340083120313D31B2028861121288615531BF2
:100044002528061126280615D31A2A2886102B28B7
:100054008614531A2F280610302806144C183428F6
:1000640006163528061286160A208612D3193C284D
:1000740086113D2886155319412806114228061574
:10008400D318462886104728861453184B28061080
:100094004C2806144C1850280616512806128616A9
:1000A4000A2086124C1C58280D20592803200800C9
:0E00B400831203134B088A004A0882000800DA
:1000C200831203134C105208D3001A204C14080058
:1000D2007B28803083120313CE008E28C030CE00DE
:1000E2008E289430CE008E28D430CE008E288030D8
:1000F200CE008E28831203134E08013A03196A2890
:100102004E08023A03196F284E08033A031972285F
:100112004E08043A0319752878284F03F0004E0858
:10012200F0077008CE007008D3001A204C10D101DD
:1001320051085007840000080319A72851085007E6
:1001420084000008D2006120D10A99284C140800CA
:1001520083160313861206120610861006118611E4
:1001620083128612061286110611861006100D20C1
:100172000D200D208614061486160A2086120D20E4
:1001820086160A2086120D2086160A2086120D2057
:10019200061086160A2086120D2086160A2086125E
:1001A2008610861586160A2086120D2086110614E0
:1001B20086160A208612061086160A2086120D203E
:1001C20086160A208612061486160A2086120D202A
:1001D200061086160A20861286150615861406143F
:0C01E20086160A2086120D204C1408001E
:1001EE00063083120313FB001330FC00AD30FD000C
:1001FE00FD0BFF28FC0BFF28FB0BFF280000000067
:02020E000800E6
:100210005A208A110A128000840ACA0A0319CB0ADA
:08022000F003031D082908008A
:10022800AE21831603178801890183128713881367
:10023800A9200130D3001A200C30D3001A20013035
:10024800CE000630CF004230D00069200230CE0008
:100258000630CF003A30D00069201530FB004B3013
:10026800FC00BE30FD00FD0B3729FC0B3729FB0BCA
:10027800372900000130D3001A200130CE000130A8
:10028800CF002930D00069200230CE000530CF00E1
:100298002030D00069201530FB004B30FC00BE3008
:1002A800FD00FD0B5529FC0B5529FB0B55290000BA
:1002B800CD0104304D02031867291C30D3001A20E1
:1002C800F720CD0A5D29CD0108304D0203187229A7
:1002D8001830D3001A20F720CD0A6829CD0108303C
:1002E8004D0203187D291C30D3001A20F720CD0AAF
:0602F800732967297E292D
:10035C00203084002A3083120313F0008430CA004A
:08036C000130CB00082108005C
:1003080045346134733479345034493443343734A0
:020318000034AF
:10031A006D3469346B3472346F3445346C346534FB
:10032A006B34743472346F346E3469346B346134C0
:02033A0000348D
:10033C006534783461346D3470346C346534003425
:10034C004C3463346434343462346934743400347B
:04400E00F22F000786
:00000001FF
